:100000000200DF020087780179007A007B227D0BF5
:100010007C001200A07801790B7A007B2D7D0A7C90
:10002000001200A0759000792C87A0752000E520B3
:1000300024F65002800280028046309002800280C6
:100040000C742DA920780029F987A0800A7422A9B0
:1000500020780029F987A0752100E521249C500211
:1000600080028002800E80000521E521249C500240
:10007000800280F20520E52024F65002800280BA3A
:10008000792C87A080FE22020006898288838B005B
:10009000EC4D6036E4E0F608A31DBDFFF31C80F0D4
:1000A000B800118B00EC4D6021E7F609081DBDFF7B
:1000B000F41C80F1898288838B00EC4D600CE49302
:1000C000F608A31DBDFFF31C80F022E4F5D0758176
:1000D0003778207A17F608DAFC12000302000002D3
:0200E00000CB53
:10010000C0F9A4B0999282F88090FFF990A480B0D1
:05011000F89982920045
:00000001FF
